:100000006CC100009BC1000099C1000097C10000B5
:1000100095C1000093C1000091C100008FC1000094
:100020008DC100008BC1000089C1000087C10000A4
:1000300085C1000083C1000081C100007FC10000B4
:100040007DC100007BC1000079C1000077C10000C4
:1000500075C1000073C1000071C100000C94790FDC
:100060006DC100000C9494130C94CA1367C1000076
:1000700065C1000063C1000061C100005FC10000F4
:100080005DC100005BC1000059C1000057C1000004
:1000900055C1000053C1000051C100004FC1000014
:1000A0004DC100004BC1000049C1000047C1000024
:1000B00045C1000043C1000041C100003FC1000034
:1000C0003DC100003BC1000039C1000037C1000044
:1000D00035C1000033C1000031C100002FC1000054
:1000E0002DC1000091049D049D049D049D049D0468
:1000F0009D0490049D049D049D049D049D048F0413
:100100008F048F048F048F048F048F048F048F0457
:100110008F049D049D049D049D049D049D049D04E5
:100120006C046F047B047E045D055E055E055E0560
:100130005E055E055E0556055E055E055E055E05AF
:100140005E054C054C054C054C054C054C054C0515
:100150004C054C054C055E055E055E055E055E05BD
:100160005E055E054D055005530525059C10A11043
:10017000A610B010BA103311C410CC10D410DE1079
:10018000E810F21001110B11331115111F11291173
:100190005411571146114A1150118E115B115F1104
:1001A000651169116D11731177117B118E11811118
:1001B0008511891100000A0B02090C0D0E080703B6
:1001C000040100000000000000000000000000002A
:1001D000000000000000000000000000000000001F
:1001E00012111000000000000000000000000000DC
:1001F00000000000000000000000010210202008A4
:100200000810204010204080020102010804020171
:1002100001020408102040808040201008040201E0
:100220008004020180402010080402010804020139
:1002300001020408102040800102040810204080C0
:1002400005050505070508080808020202020A0A52
:100250000808040404040101010101010101030370
:10026000030303030303040707070C0C0C0C0C0C1B
:100270000C0C0202020206060606060606060B0B18
:100280000B0B0B0B0B0B000020002300260029009A
:100290002C002F00320000010000030106010901BB
:1002A00000002200250028002B002E003100340021
:1002B00002010000050108010B01000021002400DB
:1002C00027002A002D003000330001010000040146
:1002D00007010A01A105FC13CF0511241FBECFEFB2
:1002E000D1E2DEBFCDBF00E00CBF16E0A0E0B2E07F
:1002F000E0E6F6E300E00BBF02C007900D92A433E6
:10030000B107D9F727E0A4E3B6E001C01D92A438F5
:10031000B207E1F712E0C8EDD2E000E006C0229794
:100320000109FE010BBF0E94E517C43DD10780E023
:100330000807A9F70E9440140C941F1B61CE83EAA2
:1003400096E00E94AD158FEA96E00E94AD1585EB10
:1003500096E00E94AD158BEB96E00C94AD15EF92F4
:10036000FF920F931F93CF93DF9388EC96E08ED686
:100370000E94470F26E040E051EE60E070E083EE1F
:1003800096E00E9434130EE012E061E0F8018081F3
:100390000E948F11CCE0D2E061E088810E948F1131
:1003A0008AE0E82E82E0F82E61E0F70180810E9469
:1003B0008F1161E083E00E948F1160E083E00E9472
:1003C000C81161E0F70180810E94C81161E0F80165
:1003D00080810E94C81160E088810E94C8118FEF5F
:1003E0008093C2068093C3068093C4068093C5069B
:1003F0008093C6068093C706DF91CF911F910F911E
:10040000FF90EF90089584E396E00E94270F809379
:10041000C1060895F8DF8091C106823439F0833433
:1004200041F0813461F468E272E005C06BE472E08F
:1004300002C06FE672E083EE96E00C94AB14089570
:100440000F931F93CF93DF93CDB7DEB76F970FB6A0
:10045000F894DEBF0FBECDBF88EC96E00E941F0C63
:10046000882309F4A8C088EC96E00E943C0C8823FD
:1004700009F4A1C082E18F8F08EC16E022EC36E08F
:1004800047E060E6C8010E94960B811194C09E016E
:10049000215E3F4FAE014F5F5F4F64E0C8010E9495
:1004A000E90B40E16091C906CE0143960E946C16AB
:1004B000BE016D5E7F4F8FEA96E00E942916CE0145
:1004C00043960E94AD1540E16091CA06CE01439665
:1004D0000E946C16BE016D5E7F4F8FEA96E00E940F
:1004E000EC16CE0143960E94AD1540E16091CB061B
:1004F000CE0143960E946C16BE016D5E7F4F8FEA5F
:1005000096E00E94EC16CE0143960E94AD1540E1A4
:100510006091CC06CE0143960E946C16BE016D5EC2
:100520007F4F8FEA96E00E94EC16CE0143960E9420
:10053000AD154AE06981CE0143960E946C1662E9CE
:1005400072E0CE0149960E9414166FEA76E0CE0161
:1005500049960E94361763EB72E00E944717BE016E
:100560006D5E7F4F0E94361768EF75E00E94471757
:10057000BC0183EE96E00E949B14CE0149960E9436
:10058000AD15CE0143960E94AD1560EC72E083EA92
:1005900096E00E943E1660E080910E020E94C81113
:1005A00061E080910C020E94C811C8010E94550BA5
:1005B000C8010E94E60B6F960FB6F894DEBF0FBE1F
:1005C000CDBFDF91CF911F910F9108951F93CF93CE
:1005D000DF93CDB7DEB763970FB6F894DEBF0FBEDB
:1005E000CDBF82E18B8BAE014D5E5F4FBE016F5F71
:1005F0007F4F88EC96E0C9D688EC96E00E943C0CD0
:10060000182F88EC96E00E94550B812F63960FB649
:10061000F894DEBF0FBECDBFDF91CF911F9108953B
:10062000CF93DF9300D000D0CDB7DEB72FE037E215
:1006300040E050E068EE73E080E090E00E949215A8
:100640006093A9067093AA068093AB069093AC06BC
:100650008BEB96E00E947D179B01AC016091A9068F
:100660007091AA068091AB069091AC060E94881703
:100670009B01AC01A1E1B0E00E94DB17AB01BC0122
:100680002AE0CE0101960E949716BE016F5F7F4F50
:100690008BEB96E00E942916CE0101960E94AD15C3
:1006A0004091A9065091AA066091AB067091AC06E4
:1006B0008BEB96E00E94051768EC72E0CE01019684
:1006C0000E9414166BEB76E0CE0101960E9436175D
:1006D00068EF75E00E944717BC0183EE96E00E9428
:1006E0009B14CE0101960E94AD1563EE72E083EA81
:1006F00096E00E943E1626960FB6F894DEBF0FBE17
:10070000CDBFDF91CF9108956091C1068BEB96E04C
:100710000E94F2168091AD069091AE0601969093DC
:10072000AE068093AD066AEE72E083EE96E00C941E
:10073000AB14CF93DF93CDB7DEB72C970FB6F894F9
:10074000DEBF0FBECDBF6091C10685EB96E00E9473
:10075000F2166091C106CE0107960E9454166DEF05
:1007600072E0CE0101960E941416BE01695F7F4FB0
:10077000CE0101960E9436176EE173E00E94471782
:10078000BC0183EE96E00E949B14CE0101960E946C
:10079000AD15CE0107960E94AD152C960FB6F894B4
:1007A000DEBF0FBECDBFDF91CF9108952CDE8091CB
:1007B000C106833229F0843479F463E273E002C025
:1007C00060E573E083EE96E00E94AB146CE473E0A6
:1007D00083EA96E00C943E16089515DE8091C106DA
:1007E000833229F0843479F46AE773E002C060EA66
:1007F00073E083EE96E00E94AB146CE473E083EA4E
:1008000096E00C943E16089567EC73E083EE96E054
:100810000E94AB1469ED73E083EA96E00E943E16F5
:1008200064E276E08BEB96E00E943E161092AE06F4
:100830001092AD066CED75E080E090E00C94F20F44
:10084000E2DD8091C106833389F134F4813341F1D3
:1008500054F58A3271F10895823469F08334B9F025
:10086000813441F56CE473E083EA96E00E943E1621
:100870006FED73E008C06FEF73E083EA96E00E94CB
:100880003E1669E074E083EE96E00C94AB1469E2E6
:1008900074E083EA96E00E943E1660E374E0F3CFD2
:1008A00068E272E0F0CF6BE472E0EDCF6FE672E0E9
:1008B000EACFAACF0895A7DD8091C106992787FDC9
:1008C0009095A92FB92FFC01B397E232F105A8F555
:1008D000EE58FF4F0C94D51760E574E002C06AE74C
:1008E00074E083EE96E00E94AB1460E774E083EA64
:1008F00096E00C943E166AE974E0F3CF60E774E08A
:1009000083EA96E00E943E166AEB74E083EE96E07E
:100910000E94AB1464E276E085EB96E0EACF09CF63
:1009200073CF64E276E085EB96E00E943E1661EDBF
:1009300074E083EE96E00C94AB14089564DD80912E
:10094000C106813449F01CF48A32C1F00895823422
:1009500031F0833481F0089569EE74E002C064E1FF
:1009600075E083EE96E00E94AB146DE075E083EADB
:1009700096E00C943E1668E375E0F3CF45CF6CE546
:1009800075E083EE96E00E94AB1469ED73E083EAB4
:1009900096E00E943E1664E276E08BEB96E00E94C1
:1009A0003E161092AE061092AD066CED75E080E03A
:1009B00090E00C94F20F27DD8091C1068A3271F02D
:1009C000843469F463EE72E083EA96E00E943E1696
:1009D00065E775E083EE96E00C94AB14D0CF0895F4
:1009E00064E276E08BEB96E00E943E161092AE0633
:1009F0001092AD0664E276E08BEB96E00E943E1624
:100A00006CE875E083EE96E00C94AB148091AD0633
:100A10009091AE061816190634F064E276E08BEB7E
:100A200096E00E943E16EFDC8091C106992787FD73
:100A30009095A92FB92FFC01B397E232F10508F088
:100A40003DC0EC56FF4F0C94D5178091AD069091A8
:100A5000AE06843091056CF464E276E08BEB96E0B0
:100A60000E943E161092AE061092AD0661EA75E045
:100A70000EC0049781F064E276E08BEB96E00E9472
:100A80003E161092AE061092AD066EEC75E083EE47
:100A900096E00C94AB14C4CD37CE68E272E0F7CF89
:100AA0006BE472E0F4CF6FE672E0F1CFADDE68EB9D
:100AB0007BE080E090E00C94F20F92CF0895EF92EB
:100AC000FF920F931F93CF93DF93F82EE62E8A01A8
:100AD000C0E0D0E0C017D1076CF566EE70E08F2D56
:100AE0000E94791064E170E08E2D0E94791060ED13
:100AF00077E080E090E00E94F20F6EE170E08F2DD1
:100B00000E94791060EB74E080E090E00E94F20FA8
:100B100060E071E08F2D0E94791060E071E08E2D11
:100B20000E94791062E370E080E090E00E94F20F92
:100B30002196D0CFDF91CF911F910F91FF90EF9031
:100B40000895EF920F9349E06AE088EC96E082D135
:100B500064E276E08BEB96E00E94141664E276E0A5
:100B600085EB96E00E9414166EEF75E08FEA96E032
:100B70000E94141669ED73E083EA96E00E94141651
:100B800094E0E92E04E024E232E040E252E060E149
:100B900072E084E396E086D60F91EF900895CFCB74
:100BA000EF92FF920F931F93CF93DF9300E010E03B
:100BB000E12CF12CC0E0D0E083EE96E00E942512FB
:100BC000892B81F083EE96E00E946E15EB0183EE97
:100BD00096E00E946E157B0183EE96E00E946E15F2
:100BE0008B01EACF209731F0AE0165E070E084E040
:100BF00090E065DFE114F10431F0A70167E070E0F7
:100C000086E090E05CDF0115110561F0A80169E064
:100C100070E088E090E0DF91CF911F910F91FF90FD
:100C2000EF904DCFDF91CF911F910F91FF90EF90FB
:100C3000089564E670E080E090E00E94F20F69EDB4
:100C400073E083EA96E00E945F17882319F0E2DBE5
:100C5000F7DB4EC060EC72E083EA96E00E945F171B
:100C6000882311F0D3DE44C063EE72E083EA96E09D
:100C70000E945F17882311F0E3DD3AC069E274E057
:100C800083EA96E00E945F17882311F014DE30C0DB
:100C900060E774E083EA96E00E945F17882311F012
:100CA0004DDE26C06FEF73E083EA96E00E945F1787
:100CB000882311F080DE1CC06DE075E083EA96E0C9
:100CC0000E945F17882311F071DD12C06CE473E09D
:100CD00083EA96E00E945F17882311F07EDD08C04A
:100CE00063E076E083EA96E00E945F1781118CDD75
:100CF00064E670E080E090E00E94F20F69ED73E03E
:100D000083EA96E00E945F1781110EC05FDC8111BB
:100D10000BC061E080910E020E94C81160E08091DA
:100D20000C020E94C81170DD3BCF2091D80622230F
:100D300099F03FB7F8942091D806213059F42DB39B
:100D40002093D6064DB32091D706209524232DBBA2
:100D50003FBF02C03093D6068CBD9DBD08958EBDA9
:100D600000000DB407FEFDCF8EB508958091D80622
:100D7000882361F09FB7F8942091D8068091D60619
:100D8000213019F48DBB9FBF08958FBF08957F92C6
:100D90008F929F92AF92BF92CF92DF92EF92FF928B
:100DA0000F931F93CF93DF936C01162F942EE901BD
:100DB0001E77106883E590E0B8DF60E0F601848577
:100DC0000E94C8119A94812FCADF7C2EEC2EFD2E32
:100DD000AA24A394B12C8E2D8719891518F5811199
:100DE00019C00023B9F0802F812C883048F4950178
:100DF000082E01C0220F0A94EAF7822A8F5FF5CFEE
:100E0000812FADDF982D9095288192238821982BF2
:100E1000988304C0812FA3DFF7018083FFEFEF1ACF
:100E2000FF0AD9CFC90DD11D80E099DF888361E029
:100E3000F60184850E94C811DF91CF911F910F9117
:100E4000FF90EF90DF90CF90BF90AF909F908F90EA
:100E50007F908CCFFC01648745870895EF92FF92C5
:100E60001F93CF93DF931F92CDB7DEB77C01162F70
:100E700083E590E0498359DF60E0F70184850E94B3
:100E8000C811812F8E776BDF4981842F68DF61E085
:100E9000F70184850E94C8110F90DF91CF911F91B7
:100EA000FF90EF9063CFCF92DF92EF92FF920F937C
:100EB0001F93CF93DF931F921F92CDB7DEB78C01A4
:100EC000E62EF42E83E590E029833A832EDF60E05E
:100ED000F80184850E94C8118E2D8E7740DF29810C
:100EE000E22EC22E3A81D32E8C2D8E198F1528F426
:100EF000F60181916F0133DFF7CF61E0F80184855E
:100F00000E94C8110F900F90DF91CF911F910F9108
:100F1000FF90EF90DF90CF9029CF1F93CF93DF9377
:100F2000EC01162F83E590E000DF60E08C850E94E5
:100F3000C811812F8E77806812DF80E010DF182FB4
:100F400061E08C850E94C81111DF812FDF91CF9164
:100F50001F9108950F9341111ADF0F910895EF9299
:100F6000FF921F93CF93DF931F92CDB7DEB77C0123
:100F7000162F4983D2DF4981482B612FC7010F907B
:100F8000DF91CF911F91FF90EF9068CFEF92FF928A
:100F90001F93CF93DF931F92CDB7DEB77C01162F3F
:100FA0004983BBDF498140954823612FC7010F90DA
:100FB000DF91CF911F91FF90EF9050CFDF92EF9292
:100FC000FF920F931F93CF93DF93EC018B01D42EED
:100FD000790140E062E042DF44E06AE0CE013EDFBA
:100FE00040E864E1CE01BBDF98014D2D62E1CE0106
:100FF0005ADF43E062E0CE0131DF08E813E16AE046
:10100000CE018BDF82FD05C001501109C1F783E0DD
:101010000FC040E062E0CE0121DF64E4CE017DDF5D
:10102000F701808362E4CE0178DFF701818380E0FD
:10103000DF91CF911F910F91FF90EF90DF90089576
:10104000CF93DF93EC014FE062E008DF62E370E0F2
:1010500080E090E0C7D762E0CE015FDF84FDFBCF88
:10106000DF91CF910895CF93DF93EC0168E255DFD4
:10107000982F9370933039F0482F436068E2CE0187
:10108000DF91CF91EBCEDF91CF910895CF93DF9396
:10109000EC0161E08C850E948F1161E08C850E94DB
:1010A000C81161E08D850E948F118D850E94FD1110
:1010B000892B51F461E08D850E94C81162E370E0D4
:1010C00080E090E08FD702C0CE01BADF40E864E54F
:1010D000CE01C4DE49EA66E5CE01C0DE43E068E544
:1010E000CE01BCDE48EE6AE5CE01B8DE40E46AE23D
:1010F000CE01B4DE4DE362E2CE01B0DECE01DF917F
:10110000CF91B1CF2F923F925F926F927F928F9249
:101110009F92AF92BF92CF92DF92EF92FF920F9386
:101120001F93CF93DF9300D01F92CDB7DEB73C0162
:10113000962E542E302E082DA114B10419F0F5016D
:10114000408101C040E0242EF0E10F9F200C1124CB
:1011500040E062E0C3012B833C8380DE4FE768E020
:10116000C3017CDE40E864E1C301F9DE2B813C81F0
:10117000432D62E1C30197DE422D6AE1C3016EDEB9
:10118000492D62E0C3016ADE8CE0981204C040E899
:101190006AE1C301E4DE90ED292E97E0392E68E084
:1011A000C301BBDE982F952139F480FD5DC0E1E0DD
:1011B0002E1A3108A1F758C06CE0C301AEDE982E9C
:1011C000837109F053C0E114F104D9F0C114D104C2
:1011D000C1F064E1C301A1DE482FF60180818417CC
:1011E00008F446C04083970162E1C301B3DE68E1C1
:1011F000C30193DE182F1770A114B10411F0F5018B
:10120000108393FC37C0E114F104B1F1C114D1048F
:1012100099F1898D882381F1F6014081413019F4DB
:10122000143019F41FC0423010F487E026C01111A9
:10123000FCCF42509E012F5F3F4FB701C301BEDE7E
:1012400081111BC0F6018081E80EF11CF701329775
:10125000908189819813E9CF319690818A81981382
:10126000E4CF0AC08FEF09C083E007C081E005C06A
:1012700084E003C082E001C080E00F900F900F90E7
:101280000F90DF91CF911F910F91FF90EF90DF9022
:10129000CF90BF90AF909F908F907F906F905F9016
:1012A0003F902F9008958F92AF92BF92CF92DF928E
:1012B000EF92FF920F931F93AF928C2C570168010E
:1012C0007901042F9B0140E36CE01CDF0F901F911C
:1012D0000F91FF90EF90DF90CF90BF90AF908F90E5
:1012E00008954F925F926F927F928F929F92AF92EA
:1012F000CF92EF92FF920F931F93CF93DF931F92A2
:101300001F92CDB7DEB73C016A832A01490141151E
:10131000510519F1F90180818230F8F040E86CE163
:10132000C30134DE87E08983A12CC12CCE01019654
:101330007C018401920141E0BE016E5F7F4FC301D9
:10134000B2DF81110DC0F4018081823041F481E06F
:101350009981911105C080E003C084E001C081E063
:101360000F900F90DF91CF911F910F91FF90EF9011
:10137000CF90AF909F908F907F906F905F904F90A5
:1013800008959A01AB0166E2ACCF9A01AB0162E528
:10139000A8CF2F923F924F925F926F927F928F923F
:1013A0009F92AF92BF92CF92DF92EF92FF920F93F4
:1013B0001F93CF93DF93CDB7DEB72D970FB6F89479
:1013C000DEBF0FBECDBF3C012B01342E20E524171C
:1013D00008F404C140E86CE1D9DDBB24B39432E0E9
:1013E000B31691F043E0B416E1F081E0B812FAC010
:1013F00083E989833320D1F041E0D2018C9185309B
:1014000008F440E0D12C17C085E98983332081F0AE
:1014100041E0F2018081883008F440E073E0D72E8B
:101420000AC087E9898366E0D62E04C0D12C02C0A9
:1014300053E0D52E40E0532DF8EFDF9E500D1124E0
:1014400057FD50E0442321F088E88B8373E001C00E
:1014500072E091E0852F877009F490E0852F8595E3
:1014600085958595890F21F4442311F1585F20C09B
:10147000442311F063E001C064E0861708F4682F8C
:1014800080E090E092012D0D311DE72FE80FA1E0E3
:10149000B0E0AC0FBD1FAE0FB11DFD01D901A80F0B
:1014A000B91F1196AC91A0830196861770F3DCCF1B
:1014B00043E0242E5032F4F0B0E7BA838C819B8154
:1014C00089279D8189279E8189278F839E01285F97
:1014D0003F4F47E0BE016F5F7F4FC3015D876EDD09
:1014E0005D858111C9C01B862A86FE0137964F0192
:1014F00079E01EC0952F97709B87252F2595259500
:10150000259582E0820F392FF0E18F9F300D112455
:101510003A8371E0911101C070E0780F88248394C0
:10152000912C8C0E9D1E880E911C87E0821B8A8751
:10153000CB844C2D4295407F4C0D6AE1C3015D8701
:101540007C878CDCA12C9E01255F3F4F79018E01A9
:10155000065F1F4F94017C85472FBE016F5F7F4F51
:10156000C301A1DE5D85823099F56CE1C301D5DC54
:101570005D8585FD35C0482F4F7109F440E2842F09
:1015800090E0252F332727FD30952817390754F58C
:10159000542F019787709927242F259525952595F8
:1015A0002F5F31E0811101C030E0230FE1E0F0E076
:1015B000EC0FFD1FE20FF11DA1E0B0E002C0AA0F89
:1015C000BB1F8A95E2F7CD019081982B908372CF53
:1015D000811152C0503244F450E26ECF86E04CC0CC
:1015E00082E04AC085E048C08B81883819F052E01B
:1015F00044E002C053E043E080E090E092012D0D12
:10160000311DF901E80FF91F652F680FA1E0B0E067
:10161000AC0FBD1FA60FB11D6C916183019684179D
:1016200080F38A85833029F58B85811122C09E0144
:101630002D5F3F4F41E0B401C301C0DC81111CC0EC
:101640009B81F4018181981316C09C81828198133B
:1016500012C0808182FF02C0B394C1CED2011B961A
:101660008C931B978B2D880F8B0D8F5F8C9380E055
:1016700003C081E001C087E02D960FB6F894DEBF6D
:101680000FBECDBFDF91CF911F910F91FF90EF90D3
:10169000DF90CF90BF90AF909F908F907F906F9092
:1016A0005F904F903F902F9008958F929F92AF92AE
:1016B000CF92EF92FF920F931F93CF93DF9300D0BF
:1016C0001F92CDB7DEB74C0180E589831A829E0157
:1016D0002D5F3F4F42E0BE016F5F7F4FC4016EDC64
:1016E000811115C0A12CC12CE12CF12C00E010E0DF
:1016F00020E030E044E0BE016F5F7F4FC401D3DDE6
:10170000833021F0811103C081E001C080E00F909F
:101710000F900F900F90DF91CF911F910F91FF903D
:10172000EF90CF90AF909F908F9008958F92AF924F
:10173000BF92CF92DF92EF92FF920F931F93CF93BE
:10174000DF93CDB7DEB72C970FB6F894DEBF0FBE90
:10175000CDBFF80169834A8389019E012D5F3F4F08
:10176000AE01475F5F4FD8016D918D01D9016D9337
:101770009D01A417B507B9F72181298722812A87FE
:1017800023812B8724812C871F92812CA12CB12CA3
:10179000C12CD12CE12CF12C0CE09E012F5F3F4F8E
:1017A00040E16EE0AFDC0F902C960FB6F894DEBFF0
:1017B0000FBECDBFDF91CF911F910F91FF90EF90A2
:1017C000DF90CF90BF90AF908F90089548E060E198
:1017D000DDCB8F929F92AF92CF92EF92FF920F93B9
:1017E0001F93CF93DF934C01EA0189012097D9F031
:1017F000F90180818231B8F080E3888369839A019E
:101800002E5F3F4F42E0BE01C401D8DB81110CC006
:10181000AA24A394C12CE12CF12C9E0144E0BE012A
:10182000C40141DD01C084E0DF91CF911F910F9190
:10183000FF90EF90CF90AF909F908F900895CF93AF
:10184000DF9300D0CDB7DEB722E02B83AE014D5F32
:101850005F4FBE016F5F7F4F94DD882331F091E0D1
:10186000823009F090E0892F01C081E00F900F9045
:101870000F90DF91CF91089540E0BC018ADD91E0A7
:10188000811190E0892F0895FC0110821482138247
:1018900015820895862F642F42C5862F642F78C540
:1018A000862FABC54F925F926F927F928F929F92DD
:1018B000AF92BF92CF92DF92EF920F93CF93DF93CD
:1018C000EC014B013A0159010296DEDF8CE096E013
:1018D000998388836E018CE1C80ED11C26018CE3AC
:1018E000480E511CC601D0DF86E0C80ED11CC414BE
:1018F000D504C1F7FE01EE59FF4F71826082329626
:10190000B182A082329600833196E082379791822D
:10191000808238968AE090E091838083329684EFCB
:1019200091E09183808333961182108271971082A7
:10193000118212821382C459DF4F1882DF91CF9136
:101940000F91EF90DF90CF90BF90AF909F908F90CE
:101950007F906F905F904F9008952F923F924F929B
:101960005F926F927F928F929F92AF92BF92CF922F
:10197000DF92EF92FF920F931F93CF93DF93CDB738
:10198000DEB728970FB6F894DEBF0FBECDBF98879D
:101990008F83F12C4C0186E6880E911C0F811885EF
:1019A0000E591F4FD4018C91F816A0F4AF81B88561
:1019B0008D919C91F801A081B181AF0DB11DFC0109
:1019C0002081318142E06C918F819885F9011995D0
:1019D000F394E8CF512CEF81F885E959FF4FFA8352
:1019E000E9830F8118850C591F4FC12CD12C76012A
:1019F000C3948F8198858E599F4F9C838B83A98137
:101A0000BA818C91581608F088C0A52CB12CAF81F2
:101A1000B8858D919C91F801A081B181AA0DBB1D63
:101A2000FC012081318141E06C918F819885F90121
:101A30001995AF81B8858D919C91F801A081B181F4
:101A4000AA0DBB1DFC012281338140E06C918F8186
:101A50009885F9011995D701C601052C04C0880F96
:101A6000991FAA1FBB1F0A94D2F79C011C01209446
:101A70003094412CD4018C91EF81F88540815181C3
:101A8000481648F5642C712CEB81FC81A081B18152
:101A9000A60DB71DFA01448155816C918F819885FF
:101AA0002D833E83FA011995660C771C2D813E81AA
:101AB000EF81F885E60DF71D892B29F48085918546
:101AC000822B932B04C0808591858221932191875D
:101AD00080874394CFCFF801A081B181AA0DBB1DAF
:101AE000FA012281338141E06C918F819885F9015F
:101AF0001995AF81B8858D919C91F801A081B18134
:101B0000AA0DBB1DFC012081318140E06C918F81C9
:101B10009885F9011995539472CF28960FB6F894C9
:101B2000DEBF0FBECDBFDF91CF911F910F91FF9010
:101B3000EF90DF90CF90BF90AF909F908F907F906D
:101B40006F905F904F903F902F900895FC0180E040
:101B500090E0258D368D2617370739F00196369699
:101B60008A309105B1F78FEF9FEF0895DC0126E0F1
:101B7000629FA00DB11D112490965C934E935F97C8
:101B800021E091962C939197FC01E459FF4F20811D
:101B900031960190F081E02D222331F0309749F009
:101BA000611107C0DC0102C0309719F05C968C917E
:101BB00019940895CF92DF92FF920F931F93CF93C2
:101BC000DF931F92CDB7DEB76C01F62EFC0186E0E5
:101BD000689FE00DF11D112411A2878D90A1813025
:101BE0009105E1F01CF4892B51F042C0823091053F
:101BF00081F1039709F03CC040E050E02EC044233F
:101C0000B9F141E050E0C601B1DFBDD1F601E85ABB
:101C1000FF4F60837183828393832AC04983B3D14A
:101C2000F601E85AFF4F0081118122813381601B48
:101C3000710B820B930B72960081118120E030E0D2
:101C40004981061717072807390718F442E050E0C2
:101C500004C041110DC043E050E06F2DC6010F904C
:101C6000DF91CF911F910F91FF90DF90CF907ECFAA
:101C70000F90DF91CF911F910F91FF90DF90CF9048
:101C800008952F923F924F925F926F927F928F9220
:101C90009F92AF92BF92CF92DF92EF92FF920F93FB
:101CA0001F93CF93DF931F92CDB7DEB71C01FC01CA
:101CB0004AE08FEF9FEF278D30A1232B21F4148E64
:101CC000968F858F11A2415036964111F4CF712C19
:101CD000610126E6C20ED11C510187E6A80EB11C97
:101CE0004101A0E68A0E911C46E0442ED6018C915B
:101CF000781608F053C0612C8101070D111D070DE6
:101D0000111D085F1F4FF501E0806E1408F044C0FC
:101D1000F80140815181062C02C0569547950A94DE
:101D2000E2F741707E9C70011124E60CF11CD40195
:101D3000ED91FC91EE0DFF1D5080B701C10149836B
:101D400005DF498197FD02C0682F1BC0019611F580
:101D5000442301F180E090E060E070E0F101E80FE1
:101D6000F91F248D211110C0469EF001479EF00DF1
:101D70001124E20DF31D548EF68EE58E10A2178EFF
:101D800041E0C10117DF06C06F5F7F4F06966A30E2
:101D9000710521F76394B7CF7394A8CF20E030E0AA
:101DA00080E0F101E20FF31F91A1911181E02A5F20
:101DB0003F4F2C333105A9F70F90DF91CF911F9141
:101DC0000F91FF90EF90DF90CF90BF90AF909F90DA
:101DD0008F907F906F905F904F903F902F900895DD
:101DE000CF92DF92EF92FF920F931F93CF93DF93E7
:101DF0008C01C9D0E801C45ADF4FC880D980EA807D
:101E0000FB806C197D098E099F09F801E859FF4F85
:101E1000C080D180E12CF12CC616D706E806F90661
:101E200058F4C8019ADDC8012CDF182FACD06883A4
:101E300079838A839B8301C010E0812FDF91CF914A
:101E40001F910F91FF90EF90DF90CF9008950F9327
:101E50001F93CF93DF93EC018C0104591F4F81E056
:101E6000F8018083CE01BCDF882349F089A1882353
:101E700031F08F8D98A1019711F48C8D03C0F8017A
:101E8000108280E0DF91CF911F910F910895CF9341
:101E9000CFB7F8948091D906811123C0E5E7F2E02D
:101EA0008491EFE2F2E09491E82FF0E0EE0FFF1F53
:101EB000E654FD4FA591B4918C91892319F461E00A
:101EC00085E366D261E085E32AD28CB580618CBD62
:101ED0008CB580648CBD61E084E321D261E083E352
:101EE0001ED28091D9068F5F8093D906CFBFCF9144
:101EF00008951F920F920FB60F9211242F933F93C4
:101F00008F939F93AF93BF938091DB069091DC06F4
:101F1000A091DD06B091DE063091DA0623E0230FB2
:101F20002D3720F40196A11DB11D05C026E8230F11
:101F30000296A11DB11D2093DA068093DB069093D3
:101F4000DC06A093DD06B093DE068091DF0690915B
:101F5000E006A091E106B091E2060196A11DB11D37
:101F60008093DF069093E006A093E106B093E2062B
:101F7000BF91AF919F918F913F912F910F900FBE85
:101F80000F901F9018952FB7F8946091DB06709111
:101F9000DC068091DD069091DE062FBF08953FB7E5
:101FA000F8948091DF069091E006A091E106B0914F
:101FB000E20626B5A89B05C02F3F19F00196A11D8A
:101FC000B11D3FBF6627782F892F9A2F620F711D91
:101FD000811D911D42E0660F771F881F991F4A954A
:101FE000D1F70895CF92DF92EF92FF92CF93DF93D4
:101FF0006B017C01D4DFEB01C114D104E104F104D5
:1020000079F085D7CCDF6C1B7D0B683E7340A0F365
:1020100081E0C81AD108E108F108C851DC4FECCFC3
:10202000DF91CF91FF90EF90DF90CF90089578945B
:1020300084B5826084BD84B5816084BD85B58260CD
:1020400085BD85B5816085BDEEE6F0E0808181606B
:102050008083E1E8F0E0108280818260808380816B
:1020600081608083E0E8F0E0808181608083E1EB43
:10207000F0E0808184608083E0EBF0E0808181602B
:102080008083E1E9F0E080818260808380818160EB
:102090008083E0E9F0E0808181608083E1EAF0E024
:1020A000808182608083808181608083E0EAF0E0CB
:1020B000808181608083E1E2F1E0808182608083C1
:1020C000808181608083E0E2F1E0808181608083B3
:1020D000EAE7F0E080818460808380818260808391
:1020E0008081816080838081806880831092C100BC
:1020F00008951F93CF93DF93182FEB0161E00FD169
:10210000209711F460E004C0CF3FD10531F461E0C5
:10211000812FDF91CF911F913BC1E12FF0E0EC5473
:10212000FE4F449150E0FA013197E231F10508F099
:102130009AC0EA54FF4F39C784B5806884BDC7BDD3
:1021400097C084B5806284BDC8BD92C08091800074
:10215000806880938000D0938900C093880088C0F5
:1021600080918000806280938000D0938B00C09328
:102170008A007EC080918000886080938000D09328
:102180008D00C0938C0074C08091B00080688093F3
:10219000B000C093B3006CC08091B00080628093A7
:1021A000B000C093B40064C08091900080688093B8
:1021B0009000D0939900C09398005AC080919000ED
:1021C000806280939000D0939B00C0939A0050C08F
:1021D00080919000886080939000D0939D00C09380
:1021E0009C0046C08091A00080688093A0008091F0
:1021F000A0008F7B8093A000D093A900C093A8007B
:1022000037C08091A00080628093A000D093AB0083
:10221000C093AA002DC08091A00088608093A00088
:10222000D093AD00C093AC0023C0809120018068A2
:1022300080932001D0932901C093280119C0809177
:102240002001806280932001D0932B01C0932A014A
:102250000FC080912001886080932001D0932D01D0
:10226000C0932C0105C0C038D1050CF050CF4ACF27
:10227000DF91CF911F91089590E0FC013197E231F9
:10228000F10508F04BC0E853FF4F8FC680918000E6
:102290008F7703C0809180008F7D809380000895A8
:1022A00080918000877FF9CF84B58F7702C084B595
:1022B0008F7D84BD08958091B0008F7703C0809199
:1022C000B0008F7D8093B0000895809190008F774B
:1022D00007C0809190008F7D03C080919000877F20
:1022E0008093900008958091A0008F7707C080911F
:1022F000A0008F7D03C08091A000877F8093A00005
:102300000895809120018F7707C0809120018F7DF3
:1023100003C080912001877F809320010895CF938F
:10232000DF9390E0FC01E650FE4F2491FC01E05C5D
:10233000FD4F8491882349F190E0880F991FFC019B
:10234000E654FD4FA591B49180569D4FFC01C59177
:10235000D4919FB7611108C0F8948C912095822385
:102360008C93888182230AC0623051F4F8948C9156
:10237000322F309583238C938881822B888304C0ED
:10238000F8948C91822B8C939FBFDF91CF9108950D
:102390000F931F93CF93DF931F92CDB7DEB7282FF4
:1023A00030E0F901EC54FE4F8491F901E650FE4F04
:1023B0001491F901E05CFD4F04910023C1F08823E2
:1023C00019F0698359DF6981E02FF0E0EE0FFF1FFC
:1023D000E056FD4FA591B4919FB7F8948C9161118F
:1023E00003C01095812301C0812B8C939FBF0F9058
:1023F000DF91CF911F910F910895CF93DF93282FF5
:1024000030E0F901EC54FE4F8491F901E650FE4FA3
:10241000D491F901E05CFD4FC491CC2389F0811186
:102420002BDFEC2FF0E0EE0FFF1FEA57FD4FA591D9
:10243000B4912C912D2381E090E021F480E002C042
:1024400080E090E0DF91CF910895FC01818D228D95
:1024500090E0805C9F4F821B91098F7399270895AC
:10246000FC01918D828D981731F0828DE80FF11D5E
:10247000858D90E008958FEF9FEF0895FC01918D79
:10248000828D981761F0828DDF01A80FB11D5D96D6
:102490008C91928D9F5F9F73928F90E008958FEF44
:1024A0009FEF089583EF93E1892B39F080E090E06E
:1024B000892B19F098D1811125C080E090E0892BFB
:1024C00041F080E090E0892B21F00E940000811112
:1024D0001CC080E090E0892B41F080E090E0892BE7
:1024E00021F00E940000811113C080E090E0892B50
:1024F000A1F080E090E0892B81F00E940000811122
:102500000AC008950E940000D8CF0E940000E1CFC9
:102510000E940000EACF0C9400000895FC01848D15
:10252000DF01A80FB11DA35ABF4F2C91848D90E0FD
:1025300001968F739927848FA689B7892C93A089D8
:10254000B1898C9180648C93938D848D981306C08F
:102550000288F389E02D80818F7D80830895CF9359
:10256000DF93EC01888D8823C1F0EA89FB898081A3
:1025700085FD05C0A889B9898C9186FD0EC00FB66E
:1025800007FCF5CF808185FFF2CFA889B9898C91AE
:1025900085FFEDCFCE01C2DFE8CFDF91CF91089567
:1025A000CF92DF92FF920F931F93CF93DF931F92EF
:1025B000CDB7DEB76C0181E0D60158968C93589761
:1025C0005B969C915B975C968C915C97981307C087
:1025D0005096ED91FC915197808185FD2DC0F601BB
:1025E000038D10E00F5F1F4F0F731127F02EF601C0
:1025F000848DF81210C00FB607FCF9CFD6015096A3
:10260000ED91FC915197808185FFF1CFC6016983DF
:1026100085DF6981ECCF838DE80FF11DE35AFF4F11
:102620006083D6015B960C935B975296ED91FC917B
:102630005397808180620CC0D6015696ED91FC9133
:10264000579760835096ED91FC91519780818064FB
:10265000808381E090E00F90DF91CF911F910F91E7
:10266000FF90DF90CF900895BF92CF92DF92EF92CC
:10267000FF92CF93DF93EC016A017B01B22EE889D0
:10268000F98982E08083411581EE58076105710563
:1026900099F060E079E08DE390E0A701960147D4DE
:1026A000215031094109510956954795379527958C
:1026B000211580E1380790F0E889F989108260E8F7
:1026C00074E88EE190E0A701960131D421503109E0
:1026D000410951095695479537952795EC85FD8514
:1026E0003083EE85FF852083188EEC89FD89B082CA
:1026F000EA89FB89808180618083EA89FB89808106
:1027000088608083EA89FB89808180688083EA8988
:10271000FB8980818F7D8083DF91CF91FF90EF9047
:10272000DF90CF90BF9008951F920F920FB60F9237
:1027300011240BB60F922F938F939F93EF93FF93D8
:10274000E091F306F091F4068081E091F906F091B2
:10275000FA0682FD12C090818091FC068F5F8F7314
:102760002091FD06821751F0E091FC06F0E0ED515A
:10277000F94F958F8093FC0601C08081FF91EF9106
:102780009F918F912F910F900BBE0F900FBE0F90C6
:102790001F9018951F920F920FB60F9211240BB62F
:1027A0000F922F933F934F935F936F937F938F93EA
:1027B0009F93AF93BF93EF93FF9383EE96E0AEDECC
:1027C000FF91EF91BF91AF919F918F917F916F9109
:1027D0005F914F913F912F910F900BBE0F900FBEC5
:1027E0000F901F90189583EE96E02FDE21E0892B45
:1027F00009F420E0822F08951092E6061092E50673
:1028000088EE93E0A0E0B0E08093E7069093E806BE
:10281000A093E906B093EA0686E196E09093E40679
:102820008093E30685EC90E09093F0068093EF06AA
:1028300084EC90E09093F2068093F10680EC90E0B7
:102840009093F4068093F30681EC90E09093F60663
:102850008093F50682EC90E09093F8068093F7065B
:1028600086EC90E09093FA068093F9061092FC06AD
:102870001092FD061092FE061092FF06089508952C
:10288000D6DBFDDF0E94AF01C2E5D2E10E9419064E
:102890002097E1F307DEFACFCF92DF92EF92FF921B
:1028A0000F931F93CF93DF936C017A01EB01E60E38
:1028B000F71E00E010E0CE15DF0561F06991D6014A
:1028C000ED91FC910190F081E02DC6011995080F62
:1028D000191FF1CFC801DF91CF911F910F91FF9088
:1028E000EF90DF90CF9008956115710581F0DB01C5
:1028F0000D900020E9F7AD0141505109461B570BDF
:10290000DC01ED91FC910280F381E02D199480E0CF
:1029100090E00895DC01ED91FC91DB0114964D915E
:102920005C9115976D917C910280F381E02D199453
:1029300062E276E0D9CF0F931F93CF93DF93EC0140
:10294000E9DF8C01CE01F4DF800F911FDF91CF9181
:102950001F910F9108950F931F93CF93DF93EC0175
:10296000C3DF8C01CE01E4DF800F911FDF91CF9197
:102970001F910F9108950F931F93CF93DF93EC0155
:1029800002DB688779878A879B87E881F9810084E1
:10299000F185E02DCE01199597FF14C0F4DA088572
:1029A00019852A853B85601B710B820B930B0C816B
:1029B0001D812E813F81601771078207930728F3DD
:1029C0008FEF9FEFDF91CF911F910F910895CF93DC
:1029D000DF93EC01CE01CFDF97FD11C08D32910561
:1029E00071F09C01205331092A30310540F0E88113
:1029F000F9810680F781E02DCE011995EBCFDF91AB
:102A0000CF910895CF92DF92FF920F931F93CF93B0
:102A1000DF9300D01F92CDB7DEB76C01062FD7DF52
:102A2000FC0197FD49C020E030E0A901F12C1127FD
:102A300007FD1095E017F107E1F0ED32F105B9F06F
:102A4000CF01C0970A97A8F4AAE0B0E0B4D29B01E6
:102A5000AC01CF01AA2797FDA095BA2F280F391FE7
:102A60004A1F5B1F205331094109510902C0FF244D
:102A7000F394D601ED91FC910680F781E02DC6011B
:102A800029833A834B835C831995C60174DFFC016B
:102A9000C09729813A814B815C810A9758F2E017EF
:102AA000F10741F2FF2061F066277727CB01621B17
:102AB000730B840B950B06C060E070E0CB0102C085
:102AC000CA01B9010F900F900F900F90DF91CF9135
:102AD0001F910F91FF90DF90CF90089561E092CF0A
:102AE000CF93DF9300D01F92CDB7DEB79B01AC012F
:102AF000611571058105910559F069833A834B830E
:102B00005C83E7D329813A814B815C8132D203C057
:102B100060E070E0CB010F900F900F900F90DF916D
:102B2000CF910895CF92DF92EF92FF926B017C01DB
:102B300062177307840795075CF4CA01B9016C1921
:102B40007D098E099F09CCDF6C0D7D1D8E1D9F1D9B
:102B5000FF90EF90DF90CF900895FC0180819181EC
:102B6000DFC2CF93DF93EC0188819981009709F050
:102B7000D7D2198218821D821C821B821A82DF9191
:102B8000CF9108950F931F93CF93DF93EC018B01A7
:102B90006F5F7F4F88819981A8D3009731F0998327
:102BA00088831B830A8381E001C080E0DF91CF919D
:102BB0001F910F910895CF93DF93EC018881998144
:102BC000892B29F08A819B818617970758F4CE01BB
:102BD000D9DF882341F08C819D81892B19F4E8810C
:102BE000F981108281E0DF91CF910895EF92FF92F9
:102BF0000F931F93CF93DF93EC017B018A01BA01FE
:102C0000DADF811103C0CE01ACDF06C01D830C8367
:102C1000B7018881998185D4CE01DF91CF911F9131
:102C20000F91FF90EF900895FC01118210821382A2
:102C30001282158214826115710551F0FB01019019
:102C40000020E9F7AF0141505109461B570BCECF89
:102C50000895CF93DF93EC01FB018617970751F09E
:102C6000608171816115710521F044815581BEDF5C
:102C700001C077DFCE01DF91CF910895CF93DF932D
:102C8000EC016115710559F0FB0101900020E9F795
:102C9000AF0141505109461B570BA8DF01C061DF4E
:102CA000CE01DF91CF910895CF93DF931F921F92B2
:102CB000CDB7DEB7FC011182108213821282158219
:102CC000148269831A82BE016F5F7F4FD7DF0F9036
:102CD0000F90DF91CF9108950F931F93CF93DF93C0
:102CE000CDB7DEB729970FB6F894DEBF0FBECDBFC4
:102CF0008C01862FF80111821082138212821582B4
:102D0000148250E0BE016F5F7F4F90E05FD4BE0140
:102D10006F5F7F4FC801B2DF29960FB6F894DEBF10
:102D20000FBECDBFDF91CF911F910F9108950F93EB
:102D30001F93CF93DF93CDB7DEB7A2970FB6F8946A
:102D4000DEBF0FBECDBF8C01CB01BA01F8011182ED
:102D50001082138212821582148230E0AE014F5F1E
:102D60005F4FE6D3BE016F5F7F4FC80187DFA2963A
:102D70000FB6F894DEBF0FBECDBFDF91CF911F918C
:102D80000F910895EF92FF920F931F93CF93DF93CC
:102D9000EC017B010C811D816115710511F480E04E
:102DA00014C04115510581F0040F151FB80103DF50
:102DB0008823A9F3288139818C819D81B701820FF5
:102DC000931FAFD31D830C8381E0DF91CF911F91BF
:102DD0000F91FF90EF900895FB0144815581608130
:102DE0007181D0CFCF93DF931F921F92CDB7DEB703
:102DF00069831A8241E050E0BE016F5F7F4FC2DFFE
:102E00000F900F90DF91CF910895EF92FF920F9363
:102E10001F93CF93DF93CDB7DEB72E970FB6F894FD
:102E2000DEBF0FBECDBF7C01CB01BA012AE030E08E
:102E30008E010F5F1F4FA8017BD3F8010190002086
:102E4000E9F7AF0141505109401B510BB801C701CF
:102E500099DF2E960FB6F894DEBF0FBECDBFDF917F
:102E6000CF911F910F91FF90EF900895CF93DF9333
:102E7000EC01FB01448155816081718183DF811107
:102E800002C0CE016EDECE01DF91CF910895CF93C7
:102E9000DF93EC016115710561F0FB0101900020E9
:102EA000E9F7AF0141505109461B570B6BDF811108
:102EB00002C0CE0156DECE01DF91CF910895FC0114
:102EC00024813581232B31F421E06115710599F0BE
:102ED000FB0108C0FC01808191816115710531F40D
:102EE00021E0FC018081882331F004C011D321E06E
:102EF000892B09F020E0822F0895FC0180819181C7
:102F0000009709F0D6C260E070E0CB010895089503
:102F1000DB018F939F934FD0BF91AF91A29F800D04
:102F2000911DA39F900DB29F900D11240895A1E2D1
:102F30001A2EAA1BBB1BFD010DC0AA1FBB1FEE1F33
:102F4000FF1FA217B307E407F50720F0A21BB30B7E
:102F5000E40BF50B661F771F881F991F1A9469F7FA
:102F600060957095809590959B01AC01BD01CF0156
:102F70000895052E97FB16F400940FD057FD05D049
:102F8000D6DF07FC02D046F408C050954095309536
:102F900021953F4F4F4F5F4F0895909580957095C5
:102FA00061957F4F8F4F9F4F0895EE0FFF1F059044
:102FB000F491E02D19940DD0A59F900DB49F900D24
:102FC000A49F800D911D112408950790F691E02D86
:102FD0001994A29FB001B39FC001A39F700D811DE2
:102FE0001124911DB29F700D811D1124911D089512
:102FF000CF93DF938230910510F482E090E0E0916E
:103000008207F091830720E030E0A0E0B0E0309745
:1030100039F14081518148175907B8F048175907CD
:1030200071F482819381109729F013969C938E936B
:1030300012972CC0909383078093820727C0211595
:10304000310531F04217530718F0A901DB0101C027
:10305000EF019A01BD01DF010280F381E02DD7CF9E
:1030600021153105F9F0281B390B2430310580F486
:103070008A819B816115710521F0FB019383828315
:1030800004C09093830780938207FE01329644C068
:10309000FE01E20FF31F819391932250310939838E
:1030A00028833AC02091800730918107232B41F477
:1030B0002091020230910302309381072093800710
:1030C00020910002309101022115310541F42DB704
:1030D0003EB74091040250910502241B350BE0914C
:1030E0008007F0918107E217F307A0F42E1B3F0B36
:1030F0002817390778F0AC014E5F5F4F241735076A
:1031000048F04E0F5F1F50938107409380078193D3
:10311000919302C0E0E0F0E0CF01DF91CF910895FC
:10312000CF93DF93009709F487C0FC013297138295
:103130001282C0918207D0918307209781F4208169
:103140003181280F391F8091800790918107821764
:10315000930779F5F0938107E09380076DC0DE0156
:1031600020E030E0AE17BF0750F412964D915C910D
:1031700013979D014115510509F1DA01F3CFB3838E
:10318000A28340815181840F951F8A179B0771F498
:103190008D919C911197840F951F02969183808346
:1031A00012968D919C9113979383828321153105FB
:1031B00029F4F0938307E09382073EC0D901139668
:1031C000FC93EE9312974D915D91A40FB51FEA17F2
:1031D000FB0779F480819181840F951F0296D901B4
:1031E00011969C938E938281938113969C938E93D8
:1031F0001297E0E0F0E08A819B81009719F0FE01D0
:10320000EC01F9CFCE01029628813981820F931FFC
:1032100020918007309181072817390769F430978A
:1032200029F4109283071092820702C0138212823F
:10323000D0938107C0938007DF91CF9108958F923B
:103240009F92AF92BF92CF92DF92EF92FF92CF9375
:10325000DF93EC01688179818A819B816115710519
:103260008105910521F464E279ED8BE597E02DE18C
:1032700033EF41E050E07DDE49015A019B01AC0192
:10328000A7EAB1E498DE6B017C01ACEEB4EFA501D6
:103290009401D1D1C60ED71EE81EF91EF7FE06C056
:1032A00081E0C81AD108E10880E8F80AC882D9820A
:1032B000EA82FB82C701B6019F77DF91CF91FF9031
:1032C000EF90DF90CF90BF90AF909F908F90089538
:1032D000B6CF86E092E0B3CF609306027093070208
:1032E000809308029093090208956F927F928F92C3
:1032F0009F92AF92BF92CF92DF92EF92FF920F9385
:103300001F93CF93DF93EC01CB01209779F4DF91EA
:10331000CF911F910F91FF90EF90DF90CF90BF90D2
:10332000AF909F908F907F906F9062CEFE01E60FDE
:10333000F71F9E0122503109E217F30708F4A8C0D5
:10334000D9010D911C91119706171707B0F00530A0
:10335000110508F49BC0A8014450510946175707AE
:1033600008F494C002501109061B170B0193119326
:103370006D937C93CF01D4DE89C05B01A01AB10AA2
:103380004E01800E911EA0918207B0918307612C9F
:10339000712C60E070E0109709F449C0A815B905D8
:1033A000C9F5ED90FC901197670142E0C40ED11C65
:1033B000CA14DB0478F147018A189B08640142E0D3
:1033C000C40ED11C1296BC9012971396AC91B5E026
:1033D000CB16D10440F0B282A38391828082D901BE
:1033E0008D939C9309C00E5F1F4F0E0D1F1DF90199
:1033F00011830083EB2DFA2F6115710531F0DB018C
:103400001396FC93EE93129741C0F0938307E093D9
:1034100082073CC06D917C9111976616770608F47F
:103420003B01BD0112960D90BC91A02DB4CF6091CF
:1034300080077091810768157905E9F468167906A7
:10344000D0F440910002509101024115510541F420
:103450004DB75EB76091040270910502461B570B91
:10346000E417F507A8F4F0938107E0938007F901CA
:10347000918380830BC0BCDD7C01009749F0A801DB
:10348000BE013DD0CE014CDEC70104C0CE0102C05A
:1034900080E090E0DF91CF911F910F91FF90EF902E
:1034A000DF90CF90BF90AF909F908F907F906F9064
:1034B00008951F93FC0199278827BC01E894119176
:1034C0001032E9F3193010F01E30C8F31B3249F006
:1034D0001D3241F4689405C043D0610F711D811DF8
:1034E000911D119110531A30B8F33EF490958095C8
:1034F000709561957F4F8F4F9F4F1F910895FB01EE
:10350000DC0102C001900D9241505040D8F708955F
:10351000FB01DC018D91019080190110D9F3990B09
:103520000895FB01DC0101900D920020E1F7089560
:103530002532310518F4223008F004C0FA01108257
:10354000CA010895BB272A3051F4992342F4BDE201
:1035500090958095709561957F4F8F4F9F4F16C0C6
:10356000592F482F372F262F660F771F881F991F37
:10357000660F771F881F991F620F731F841F951F87
:10358000660F771F881F991F0895BB27FA01A62F82
:103590006217710581059105330B30FB66F0AA2790
:1035A000660F771F881F991FAA1FA21710F0A21B72
:1035B00063953850A9F7A05DAA3308F0A95DA193DF
:1035C00036F7B111B1931082CA0123C045325105BB
:1035D00018F4423008F004C0FB011082CB010895BA
:1035E000BB27FB015527AA27880F991FAA1FA417DD
:1035F00010F0A41B83955051B9F7A05DAA3308F0D1
:10360000A95DA193009779F7B111B1931192CB0104
:1036100000C0DC01FC01672F71917723E1F732973D
:1036200004C07C916D9370836291AE17BF07C8F39D
:103630000895B7FFC0CCBFDC821B930B089512E046
:10364000C8EDD2E000E005C022970109FE010BBFE2
:10365000BCDCCA3DD10780E00807B1F7F894FFCF82
:1036600000008407800001000000260029002800D7
:103670003132334134353642373839432A302344E6
:10368000161718191A1B1C1D7B226576656E74228D
:103690003A226C616E6775616765222C226F7074C7
:1036A000696F6E223A22454E227D007B2265766547
:1036B0006E74223A226C616E6775616765222C22F6
:1036C0006F7074696F6E223A22474552227D007BEB
:1036D000226576656E74223A226C616E6775616749
:1036E00065222C226F7074696F6E223A224E4C2232
:1036F0007D007B226576656E74223A226361726476
:103700007265636569766564222C22636172642246
:103710003A2200222C2262616E6B6964223A2200F6
:1037200070696E636F6465007B226576656E7422D6
:103730003A2270696E73656E64222C2270696E2263
:103740003A220063686F696365007B226576656E67
:1037500074223A2270696E646F74227D007B226548
:1037600076656E74223A22616D6F756E746B657941
:1037700022202C20226B657922203A222000222050
:103780007D20007B226576656E74223A22646F6E1E
:1037900061746563686F696365222C226F70746958
:1037A0006F6E223A2274727565227D00626F6E0020
:1037B0007B226576656E74223A22646F6E61746551
:1037C00063686F696365222C226F7074696F6E2263
:1037D0003A2266616C7365227D007B226576656E98
:1037E00074223A22626F6E63686F696365222C22CD
:1037F0006F7074696F6E223A2274727565227D0053
:103800007B226576656E74223A22626F6E63686F02
:10381000696365222C226F7074696F6E223A22668A
:10382000616C7365227D007B226576656E74223A39
:10383000227265736574227D007374617274007BFB
:10384000226576656E74223A2263686F6963652229
:103850002C226F7074696F6E223A2261227D007390
:10386000616C646F76696577007B226576656E743E
:10387000223A2263686F696365222C226F70746933
:103880006F6E223A2262227D00616D6F756E740048
:103890007B226576656E74223A2263686F69636580
:1038A000222C226F7074696F6E223A2263227D008F
:1038B0007B226576656E74223A22616D6F756E7437
:1038C0006B6579222C226B6579223A2261227D0078
:1038D00062616E6B6E6F746573007B226576656ED8
:1038E00074223A22616D6F756E746B6579222C2299
:1038F0006B6579223A2262227D007B226576656EB5
:1039000074223A22616D6F756E746B6579222C2278
:103910006B6579223A2263227D007B226576656E93
:1039200074223A22616D6F756E74646F6E65227DCC
:10393000007B226576656E74223A22616D6F756E2A
:10394000747265736574227D007B226576656E7482
:10395000223A2262696C6C63686F696365222C226B
:103960006F7074696F6E223A2261227D00646F6EFF
:10397000617465007B226576656E74223A22626905
:103980006C6C63686F696365222C226F7074696F59
:103990006E223A2262227D007B226576656E742259
:1039A0003A2262696C6C63686F696365222C226FCE
:1039B0007074696F6E223A2263227D007B226576E5
:1039C000656E74223A2272657365747375636365FC
:1039D0007373227D007B226576656E74223A2262C3
:1039E00061636B746F6D656E75227D007B226576F9
:1039F000656E74223A2270696E7265736574227DF9
:103A0000007B226576656E74223A226572726F724F
:103A1000222C226572726F72223A2250696E636F95
:103A20006465207465206B6F72742E227D007B228A
:103A30006576656E74223A226572726F72222C224C
:103A40006572726F72223A2250696E636F646520EC
:103A50007465206C616E672E227D002030006E6FD1
:103A60006E6500646F6E6500000000004A0C4D0C2E
:103A7000500C00000000D0124C1425123E123012DF
:103A8000AF120D0A006E616E00696E66006F766699
:043A9000002E000004
:00000001FF
